:100000000C9434000C9446000C9446000C9446006A
:100010000C9446000C9446000C9446000C94460048
:100020000C9446000C9446000C9446000C94460038
:100030000C9446000C9446000C9446000C94460028
:100040000C9446000C9446000C947F000C944600DF
:100050000C9446000C9463000C9446000C944600EB
:100060000C9446000C94460011241FBECFEFD8E03C
:10007000DEBFCDBF21E0A0E0B1E001C01D92A33002
:10008000B207E1F70E94D3000C94E9000C94000041
:10009000ECE7F0E0108280818064808380818F773C
:1000A0008083808186608083808180628083EAE7AC
:1000B000F0E0808180688083808188608083808197
:1000C0008760808308951F920F920FB60F921124BC
:1000D0008F939F938091790090E090930201809399
:1000E00001019F918F910F900FBE0F901F90189557
:1000F0009091C00095FFFCCF8093C60008951F9299
:100100000F920FB60F9211248F939F939091C60078
:10011000909300018091C00085FFFCCF9093C600B2
:10012000809100018295880F807E8BB980910001BB
:1001300086958695869585B99F918F910F900FBE74
:100140000F901F901895962F909589236423862BE6
:1001500008958AB142E063E00E94A3008AB9E0EC0E
:10016000F0E01082808182608083E1ECF0E0108218
:10017000808188698083E2ECF0E010828081866073
:1001800080838FEC90E09093C5008093C400089525
:10019000F8940E94480080EE8AB98FE184B90E94E9
:1001A000A900789408950E94C80080E88BB9EAE716
:1001B000F0E080818064808381E40E9478002FEFEA
:1001C00081EE94E0215080409040E1F700C00000B3
:0601D000EECFF894FFCF12
:00000001FF
