S00F0000506F736C6162362E737265637E
S11300000C9434000C9451000C9451000C94510045
S11300100C9451000C9451000C9451000C94510018
S11300200C9451000C9451000C9451000C94510008
S11300300C9451000C9451000C9451000C945100F8
S11300400C9451000C9451000C949D000C9451009C
S11300500C9451000C946E000C9451000C945100BB
S11300600C9451000C94510011241FBECFEFD8E022
S1130070DEBFCDBF11E0A0E0B1E0E4E7F3E002C0F1
S113008005900D92AE36B107D9F721E0AEE6B1E0A6
S113009001C01D92A237B207E1F70E9406010C9439
S11300A0B8010C940000ECE7F0E0108280818064D9
S11300B0808380818F778083808186608083808144
S11300C080628083EAE7F0E08081806880838081B9
S11300D08860808380818760808308951F920F9257
S11300E00FB60F9211248F939F938091790090E023
S11300F090937101809370019F918F910F900FBE27
S11301000F901F9018959091C00095FFFCCF80939D
S1130110C60008950F931F93CF938C01C0E003C0D2
S11301200E948300CF5FF801EC0FF11D80818111E3
S1130130F7CFCF911F910F9108951F920F920FB691
S11301400F9211248F939F939091C60090936F0107
S11301508091C00085FFFCCF9093C60080916E0112
S1130160813069F480916F01813319F492E09093A6
S11301706E018233A1F483E080936E0110C0843059
S113018071F480916F018295880F807E8BB9809184
S11301906F0186958695869585B910926E019F911B
S11301A08F910F900FBE0F901F901895962F9095DA
S11301B089236423862B08958AB142E063E00E9478
S11301C0D6008AB9E0ECF0E01082808182608083FE
S11301D0E1ECF0E01082808188698083E2ECF0E059
S11301E010828081866080838FEC90E09093C500BC
S11301F08093C4000895F8940E94530080EE8AB955
S11302008FE184B90E94DC00789408950E94FB0079
S113021080E88BB9EAE7F0E0808180648083809194
S11302206E0181110AC08BE391E00E948A008091E3
S11302306E018F5F80936E01EDCF823009F079C03B
S11302408AE00E94830080E091E00E948A0020916D
S11302507001309171013695279536952795ABE756
S1130260B4E10E94A90196958795805D0E94830060
S113027040917001509171019A01369527953695F8
S11302802795ABE7B4E10E94A9019C013695279517
S1130290C4E6C29FC001C39F900D11249A01281B7C
S11302A0390BADECBCEC0E94A90196958795969507
S11302B0879596958795805D0E948300E0917001F3
S11302C0F09171019F013695279536952795ABE7F7
S11302D0B4E10E94A901AC0156954795C49FC001A1
S11302E0C59F900D1124AF01481B590B9A01ADEC29
S11302F0BCEC0E94A901969587959695879596954D
S113030087959C01220F331F880F991F880F991F0F
S1130310880F991F820F931F9A01281B390BC9015B
S1130320805D0E9483008AE00E94830010926E0127
S113033071CF833009F06ECF8AE00E9483008BE096
S113034091E00E948A0080916E018F5F80936E011C
S113035061CFA29FB001B39FC001A39F700D811D07
S11303601124911DB29F700D811D1124911D0895BA
S1070370F894FFCF2B
S113037456616C6F72204144433A00456E7669615C
S113038420656C2063617261637465722041534318
S113039449492071756520717569657261732064BA
S11303A46573706C65676172200A000A204D454EBE
S11303B4550A20312E204C65657220706F74656E69
S11303C463696F6D6574726F200A20322E20456E46
S11103D476696172204153434949200A0000B2
S9030000FC
