S00D00004C616220362E73726563B2
S11300000C9434000C9451000C9451000C94510045
S11300100C9451000C9451000C9451000C94510018
S11300200C9451000C9451000C9451000C94510008
S11300300C9451000C9451000C9451000C945100F8
S11300400C9451000C9451000C949D000C9451009C
S11300500C9451000C946E000C9451000C945100BB
S11300600C9451000C94510011241FBECFEFD8E022
S1130070DEBFCDBF11E0A0E0B1E0E8EFF1E002C0E7
S113008005900D92AE30B107D9F721E0AEE0B1E0B2
S113009001C01D92A131B207E1F70E94F1000C9456
S11300A0FA000C940000ECE7F0E010828081806498
S11300B0808380818F778083808186608083808144
S11300C080628083EAE7F0E08081806880838081B9
S11300D08860808380818760808308951F920F9257
S11300E00FB60F9211248F939F938091790090E023
S11300F09093100180930F019F918F910F900FBEE9
S11301000F901F9018959091C00095FFFCCF80939D
S1130110C60008950F931F93CF938C01C0E003C0D2
S11301200E948300CF5FF801EC0FF11D80818111E3
S1130130F7CFCF911F910F9108951F920F920FB691
S11301400F9211248F939F939091C60090930E0168
S11301508091C00085FFFCCF9093C60080910E0172
S11301608295880F807E8BB980910E018695869545
S1130170869585B99F918F910F900FBE0F901F9018
S11301801895962F909589236423862B08958AB118
S113019042E063E00E94C1008AB9E0ECF0E0108222
S11301A0808182608083E1ECF0E010828081886944
S11301B08083E2ECF0E010828081866080838FECA3
S11301C090E09093C5008093C4000895F8940E9431
S11301D0530080EE8AB98FE184B90E94C7007894F5
S11301E008950E94E60080E88BB980E091E00E94C7
S10B01F08A00FFCFF894FFCF51
S11101F8486F6C61206D756E646F210A000003
S9030000FC
